{
  "_format": "hh-sol-artifact-1",
  "contractName": "MedicalRecord",
  "sourceName": "contracts/MedicalRecord.sol",
  "abi": [
    {
      "inputs": [
        {
          "internalType": "string",
          "name": "_url",
          "type": "string"
        },
        {
          "internalType": "string",
          "name": "_fileName",
          "type": "string"
        },
        {
          "internalType": "string",
          "name": "_timestamp",
          "type": "string"
        },
        {
          "internalType": "string",
          "name": "_fileType",
          "type": "string"
        }
      ],
      "name": "Add",
      "outputs": [],
      "stateMutability": "nonpayable",
      "type": "function"
    },
    {
      "inputs": [
        {
          "internalType": "address",
          "name": "user",
          "type": "address"
        }
      ],
      "name": "Allow",
      "outputs": [],
      "stateMutability": "nonpayable",
      "type": "function"
    },
    {
      "inputs": [
        {
          "internalType": "address",
          "name": "user",
          "type": "address"
        }
      ],
      "name": "DisAllow",
      "outputs": [],
      "stateMutability": "nonpayable",
      "type": "function"
    },
    {
      "inputs": [
        {
          "internalType": "address",
          "name": "_user",
          "type": "address"
        }
      ],
      "name": "Display",
      "outputs": [
        {
          "components": [
            {
              "internalType": "string",
              "name": "url",
              "type": "string"
            },
            {
              "internalType": "string",
              "name": "fileName",
              "type": "string"
            },
            {
              "internalType": "string",
              "name": "timestamp",
              "type": "string"
            },
            {
              "internalType": "string",
              "name": "fileType",
              "type": "string"
            }
          ],
          "internalType": "struct MedicalRecord.FileData[]",
          "name": "",
          "type": "tuple[]"
        }
      ],
      "stateMutability": "view",
      "type": "function"
    },
    {
      "inputs": [],
      "name": "ShareAccess",
      "outputs": [
        {
          "components": [
            {
              "internalType": "address",
              "name": "user",
              "type": "address"
            },
            {
              "internalType": "bool",
              "name": "access",
              "type": "bool"
            }
          ],
          "internalType": "struct MedicalRecord.Access[]",
          "name": "",
          "type": "tuple[]"
        }
      ],
      "stateMutability": "view",
      "type": "function"
    }
  ],
  "bytecode": "0x608060405234801561001057600080fd5b50610c3a806100206000396000f3fe608060405234801561001057600080fd5b50600436106100575760003560e01c806316c61d721461005c5780632270a498146100715780634ab1fb4e1461008457806362d61095146100ad5780638d7629ce146100c2575b600080fd5b61006f61006a3660046107a2565b6100d5565b005b61006f61007f3660046107a2565b610268565b6100976100923660046107a2565b61034b565b6040516100a49190610818565b60405180910390f35b6100b5610685565b6040516100a491906108d4565b61006f6100d03660046109d1565b610708565b3360008181526001602081815260408084206001600160a01b038716808652908352818520805460ff19169094179093559383526003815283832091835252205460ff16156101e05760005b336000908152600260205260409020548110156101dc5733600090815260026020526040902080546001600160a01b03841691908390811061016557610165610a7e565b6000918252602090912001546001600160a01b0316036101ca57336000908152600260205260409020805460019190839081106101a4576101a4610a7e565b60009182526020909120018054911515600160a01b0260ff60a01b199092169190911790555b806101d481610a94565b915050610121565b5050565b336000818152600260209081526040808320815180830183526001600160a01b03878116808352600183870181815285548083018755958952878920945194909501805495511515600160a01b026001600160a81b03199096169490931693909317939093179055948452600383528184209084529091529020805460ff1916909117905550565b3360009081526001602090815260408083206001600160a01b03851684529091528120805460ff191690555b336000908152600260205260409020548110156101dc5733600090815260026020526040902080546001600160a01b0384169190839081106102d8576102d8610a7e565b6000918252602090912001546001600160a01b0316036103395733600090815260026020526040812080548390811061031357610313610a7e565b60009182526020909120018054911515600160a01b0260ff60a01b199092169190911790555b8061034381610a94565b915050610294565b60606001600160a01b03821633148061038757506001600160a01b038216600090815260016020908152604080832033845290915290205460ff165b6103cf5760405162461bcd60e51b8152602060048201526015602482015274594f5520444f4e275420484156452041434345535360581b604482015260640160405180910390fd5b6001600160a01b03821660009081526020818152604080832080548251818502810185019093528083529193909284015b8282101561067a578382906000526020600020906004020160405180608001604052908160008201805461043390610abb565b80601f016020809104026020016040519081016040528092919081815260200182805461045f90610abb565b80156104ac5780601f10610481576101008083540402835291602001916104ac565b820191906000526020600020905b81548152906001019060200180831161048f57829003601f168201915b505050505081526020016001820180546104c590610abb565b80601f01602080910402602001604051908101604052809291908181526020018280546104f190610abb565b801561053e5780601f106105135761010080835404028352916020019161053e565b820191906000526020600020905b81548152906001019060200180831161052157829003601f168201915b5050505050815260200160028201805461055790610abb565b80601f016020809104026020016040519081016040528092919081815260200182805461058390610abb565b80156105d05780601f106105a5576101008083540402835291602001916105d0565b820191906000526020600020905b8154815290600101906020018083116105b357829003601f168201915b505050505081526020016003820180546105e990610abb565b80601f016020809104026020016040519081016040528092919081815260200182805461061590610abb565b80156106625780601f1061063757610100808354040283529160200191610662565b820191906000526020600020905b81548152906001019060200180831161064557829003601f168201915b50505050508152505081526020019060010190610400565b505050509050919050565b336000908152600260209081526040808320805482518185028101850190935280835260609492939192909184015b828210156106ff57600084815260209081902060408051808201909152908401546001600160a01b0381168252600160a01b900460ff161515818301528252600190920191016106b4565b50505050905090565b33600090815260208181526040808320815160808101835288815280840188905291820186905260608201859052805460018101825590845291909220825160049092020190819061075a9082610b44565b506020820151600182019061076f9082610b44565b50604082015160028201906107849082610b44565b50606082015160038201906107999082610b44565b50505050505050565b6000602082840312156107b457600080fd5b81356001600160a01b03811681146107cb57600080fd5b9392505050565b6000815180845260005b818110156107f8576020818501810151868301820152016107dc565b506000602082860101526020601f19601f83011685010191505092915050565b60006020808301818452808551808352604092508286019150828160051b87010184880160005b838110156108c657603f19898403018552815160808151818652610865828701826107d2565b915050888201518582038a87015261087d82826107d2565b915050878201518582038987015261089582826107d2565b915050606080830151925085820381870152506108b281836107d2565b96890196945050509086019060010161083f565b509098975050505050505050565b602080825282518282018190526000919060409081850190868401855b8281101561092157815180516001600160a01b0316855286015115158685015292840192908501906001016108f1565b5091979650505050505050565b634e487b7160e01b600052604160045260246000fd5b600082601f83011261095557600080fd5b813567ffffffffffffffff808211156109705761097061092e565b604051601f8301601f19908116603f011681019082821181831017156109985761099861092e565b816040528381528660208588010111156109b157600080fd5b836020870160208301376000602085830101528094505050505092915050565b600080600080608085870312156109e757600080fd5b843567ffffffffffffffff808211156109ff57600080fd5b610a0b88838901610944565b95506020870135915080821115610a2157600080fd5b610a2d88838901610944565b94506040870135915080821115610a4357600080fd5b610a4f88838901610944565b93506060870135915080821115610a6557600080fd5b50610a7287828801610944565b91505092959194509250565b634e487b7160e01b600052603260045260246000fd5b600060018201610ab457634e487b7160e01b600052601160045260246000fd5b5060010190565b600181811c90821680610acf57607f821691505b602082108103610aef57634e487b7160e01b600052602260045260246000fd5b50919050565b601f821115610b3f57600081815260208120601f850160051c81016020861015610b1c5750805b601f850160051c820191505b81811015610b3b57828155600101610b28565b5050505b505050565b815167ffffffffffffffff811115610b5e57610b5e61092e565b610b7281610b6c8454610abb565b84610af5565b602080601f831160018114610ba75760008415610b8f5750858301515b600019600386901b1c1916600185901b178555610b3b565b600085815260208120601f198616915b82811015610bd657888601518255948401946001909101908401610bb7565b5085821015610bf45787850151600019600388901b60f8161c191681555b5050505050600190811b0190555056fea2646970667358221220f2f4eca33966ee1e831b5ffadfc4eb1d1737665bf73d481e17df20000a0ae2ab64736f6c63430008110033",
  "linkReferences": {},
  "deployedLinkReferences": {}
}